:020000040800F2
:10000000E82200207D020008BB250008112200081C
:10001000B92500086B080008552F000800000000F3
:100020000000000000000000000000009D0100082A
:100030006D08000800000000F901000855290008BB
:10004000970200089702000897020008970200082C
:10005000970200089702000897020008970200081C
:10006000970200089702000897020008970200080C
:1000700097020008970200089702000897020008FC
:1000800097020008970200089702000897020008EC
:1000900097020008970200089702000897020008DC
:1000A00097020008970200089702000897020008CC
:1000B000392A0008970200089702000897020008F2
:1000C00097020008970200089702000897020008AC
:1000D0009702000897020008492F000897020008BD
:1000E000970200089702000897020008970200088C
:1000F000970200089702000897020008970200087C
:10010000970200089702000897020008970200086B
:10011000970200089702000897020008970200085B
:10012000970200089702000897020008970200084B
:10013000970200089702000897020008970200083B
:10014000970200089702000897020008970200082B
:10015000970200089702000897020008970200081B
:10016000970200089702000897020008970200080B
:10017000970200089702000897020008000000009C
:100180009702000897020008DFF80CD000F0ECFAA4
:1001900000480047A9380008E82200202C4B1968C5
:1001A000086800F05AB880F30988BFF36F8F4FF0EA
:1001B000000080F3118870470000000008480068C4
:1001C000006880F308884FF0000080F3148862B65E
:1001D00061B6BFF34F8FBFF36F8F00DF00BF00BF6B
:1001E00008ED00E0DFF80C00016841F470010160E7
:1001F000704700BF88ED00E0EFF30980BFF36F8F19
:10020000134B1A681EF0100F08BF20ED108A20E96A
:10021000F04F106009B44FF0500080F31188BFF325
:100220004F8FBFF36F8F04F0F3FC4FF0000080F3AB
:10023000118809BC1968086800F014B81EF0100F86
:1002400008BF00F014B880F30988BFF36F8F7047C0
:1002500018000020EFF30580704730C8B0E8C04FA9
:10026000FFF7A1BF30C8B0E8C04FFFF7E7BFB0EC61
:10027000088AB0EC08CAFFF7E6BF000006488047CE
:1002800006480047FEE7FEE7FEE7FEE7FEE7FEE77B
:10029000FEE7FEE7FEE7FEE7F52900088901000812
:1002A0002DE9F05F0546002092469B4688460646AB
:1002B000814640241BE0284641464746224600F03E
:1002C0007FF853465A46C01A914110D3114618463A
:1002D000224600F066F82D1A67EB01084F462246C9
:1002E0000120002100F05DF817EB00094E41201EAF
:1002F000A4F10104DFDC484631462A46434600F0BB
:1003000000B830BCBDE8C09F40EA01039B0703D0A2
:1003100009E008C9121F08C0042AFAD203E011F844
:10032000013B00F8013B521EF9D27047D2B201E006
:1003300000F8012B491EFBD270470022F6E710B5EA
:1003400013460A4604461946FFF7F0FF204610BD43
:1003500000F0004230F000400AD0C10D01F560719C
:10036000C0F3160042EA0151C2084007114370472A
:1003700000200146704730B50B4601460020202280
:10038000012409E021FA02F59D4205D303FA02F5A2
:10039000491B04FA02F52844151EA2F10102F1DC02
:1003A00030BD202A04DB203A00FA02F10020704719
:1003B0009140C2F1200320FA03F3194390407047A3
:1003C000202A04DB203A21FA02F00021704721FAAA
:1003D00002F3D040C2F12002914008431946704711
:1003E0002DE9FE4F804681EA0300C00F0C460090C5
:1003F00021F0004123F00045B8EB0200A94105D2ED
:100400004046214690461C460B46024623F00040DB
:10041000104347D0270DC7F30A00C3F30A510290D7
:10042000401A019040286BDAC3F3130040F4801B9C
:100430000098924620B10023D2EB030A63EB0B0B2A
:1004400001985946C0F140025046FFF7AAFF064600
:100450000D4650465946019A00F098F910EB0800F5
:100460006141002487EA115284EAE7731A4340D0BD
:10047000009A62B3019A012A4FEA075215DC001B69
:1004800061EB02014FF0004202EA0752CDE900425F
:10049000001C41F5801132462B4600F098F903B05C
:1004A00000F045B840462146F9E7001B61EB020128
:1004B000001C41F5801300185B412018A2F50017BD
:1004C00047EB030140EAD570B6196D4111E06D08A4
:1004D0004FEA360645EAC0754FEA0752001B61EB4A
:1004E0000201001C41F5801149084FEA3000001953
:1004F000514132462B4603B000F01CB800F058B909
:100500000098012240000023D0EB020263EBE0736D
:10051000009821464FEAE074B8EB000061EB04015B
:10052000E9E783F000435BE781F0004158E730BC26
:10053000BDE8C08F30BCBDE8C04FFFF7DFBF2DE97D
:10054000FE4F81EA030404F0004421F000410094CE
:100550004FF0000B23F0004350EA01045ED052EA52
:1005600003045BD0C3F30A54C1F30A552C44A4F22C
:10057000F3340194A0FB0254C1F3130141F4801140
:10058000C3F3130343F4801301FB024400FB034E47
:10059000840A970A44EA815447EA8357A4FB076810
:1005A00002958D0A05FB07854FEA932C04FB0C543A
:1005B0002705029D4FEA065847EA1637B5EB0805AE
:1005C0006EEB070C870E920E47EA811742EA831200
:1005D000A7FB0201B6EB0B0164EB00042B0D43EA11
:1005E0000C335E1844EB1C50DA465146E7FB02011F
:1005F000C5F313044FEA0B3343EA14534FEA0432B2
:10060000019C43EA0603A4F10C040294009CCDE98A
:1006100000B400F0DCF803B000F003B8002001469D
:10062000F9E730BCBDE8C08F2DE9F04D81EA030445
:1006300004F0004B21F0004514464FF0000A23F06F
:10064000004150EA050220D054EA01021DD0C5F352
:100650000A570246C5F31303C1F31300C1F30A5648
:1006600040F4801543F48013A7EB0608101BD64610
:1006700008F2FD3873EB050002D308F1010801E030
:1006800092185B41B8F1000F03DA00200146BDE883
:10069000F08D00204FF48011064684460EE0171BB3
:1006A00073EB050705D3121B63EB050306434CEA06
:1006B000010C49084FEA300092185B4150EA0107EB
:1006C000EDD152EA030012D082EA040083EA050168
:1006D000084305D0101BAB4106D20122002306E0DF
:1006E00000224FF0004302E06FF0010253101AEBBA
:1006F00006004CEB085110EB0A0041EB0B01BDE882
:10070000F04D00F055B8C1F30A52C1F3130140F2A5
:10071000FF3341F480119A4202DA0020014670470B
:1007200040F233439A42A2F2334202DC5242FFF7D4
:1007300047BEFFF736BE000030B5041E71F100045D
:1007400004DB4FF00044404264EB0101141E73F1DE
:10075000000405DB1C464FF00043524263EB0403E8
:10076000994208BF904230BD064C074D06E0E06854
:1007700040F0010394E8070098471034AC42F6D3E8
:10078000FFF706FD445A0008645A0008202A06DBD9
:10079000CB17203A41FA02F043EAE07306E041FA4F
:1007A00002F3D040C2F1200291400843194670473D
:1007B00010B5141E73F1000408DA401C41F1000169
:1007C00092185B411A4301D120F0010010BD2DE9C0
:1007D000F04D92469B4611B1B1FA81F202E0B0FAB7
:1007E00080F220329046FFF7DCFD04460F4640EAD7
:1007F0000A0041EA0B0153465A46084313D01146FA
:1008000053EA010019D0C8F140025046FFF7D8FD65
:1008100005460E46504659464246FFF7C2FD08437C
:1008200005D0012004E020463946BDE8F08D0020C7
:10083000054346EAE0762C4337430A986305E40A09
:10084000A0EB08000022FD0A44EA47540A3002D512
:1008500000200146E9E7010510196941DDE9084575
:1008600000196941BDE8F04DA2E7FEE77047704707
:1008700010B590F825100024022903D00421C1638B
:1008800001241AE001680A6822F00E020A60016879
:100890000A6822F001020A6090F84410036C01F02B
:1008A0001C02012101FA02F25A6080F82510002191
:1008B00080F82410816B01B18847204610BD0000EC
:1008C00070B5044600F052F90546601C02D0044899
:1008D0000078044400F04AF9401BA042FAD370BDEE
:1008E000080000202DE9F04FDFF83492002309F1D1
:1008F000040A012403250AF1040B87B00F270BF12A
:10090000040E04E104FA03F632407CD0D1F804C0AE
:10091000BCF1010F08D0BCF1020F05D0BCF1110FE2
:1009200002D0BCF1120F29D1D0F808C0CDF800C018
:100930004FEA430C05FA0CF8CDF80CC0DDF800C006
:100940002CEA080CCDF800C0D1F80C80DDF80CC002
:1009500008FA0CF8DDF800C048EA0C08C0F8088076
:10096000D0F8048091F804C028EA0608CCF3001CF3
:100970000CFA03FC4CEA080CC0F804C0D1F804805F
:100980006FEA080C5FEA8C7C09D1D0F82CC02CEA05
:10099000060CC8F3C0069E4046EA0C06C662D0F8B4
:1009A0000CC04FEA430805FA08F62CEA060CCDF80D
:1009B000148002968E6806FA08F646EA0C06C660AF
:1009C0004E68022E01D0122E15D1DE0800EB8606ED
:1009D0000396366A4FEA437C4FEADC6807FA08FC64
:1009E00026EA0C06D1F810C00CFA08FC4CEA060CFA
:1009F000039EC6F820C00668DDF808C026EA0C068B
:100A000091F804C000E081E0DDF814800CF0030CE4
:100A10000CFA08FC4CEA060CC0F800C04E68F60060
:100A200074D5404ED6F860C04CF0010CC6F860C0DA
:100A3000366E23F0030C06F0010600963A4E66442B
:100A40000296D6F808C09E074FEA167807FA08F60D
:100A50002CEA060CB0F1904F04D0344EB04203D1D2
:100A600001261BE0002619E0314EB04201D10226DA
:100A700014E0304EB04201D103260FE02E4EB042BA
:100A800001D104260AE02D4EB04201D1052605E031
:100A90002B4EB04201D1062600E0072606FA08F6E2
:100AA00046EA0C06DDF808C0CCF80860D9F800600A
:100AB000CC46D1F8048096435FEAC83800D5164387
:100AC000CCF80060DAF80060D446D1F80480964390
:100AD0005FEA883800D51643CCF80060DBF8006088
:100AE000DC46D1F8048096435FEAC82800D5164357
:100AF000CCF80060DEF80060F446D1F8048096433C
:100B00005FEA882800D51643CCF800605B1C0A68B1
:100B100032FA03F67FF4F6AE07B000F013B8000027
:100B200000040140001002400000014000040048A1
:100B300000080048000C004800100048001400485D
:100B40000018004830BCBDE8C08F426921EA0203AA
:100B50000A4043EA0241816170470AB181617047EE
:100B6000816270474FF086707047000001488068CE
:100B7000704700000800002090F84120202A24D16E
:100B800090F84020012A20D0012280F84020242221
:100B900080F841200268136823F0010313600268A3
:100BA000136823F480531360026813680B431360C7
:100BB00001680A6842F001020A60202180F84110B1
:100BC000002180F84010084670470220704790F8D6
:100BD0004120202A22D190F84020012A1ED0012253
:100BE00080F84020242280F841200268136823F016
:100BF000010313600268136823F4706343EA012160
:100C0000116001680A6842F001020A60202180F840
:100C10004110002180F840100846704702207047BC
:100C200070B5040004D094F84100002510B106E02E
:100C3000012070BD84F84050204600F079F924204E
:100C400084F841002068016821F0010101606068BA
:100C5000216820F0706008612068816821F40041FB
:100C60008160E0680128A06807D040F40440216852
:100C70008860E068022803D006E040F40040F6E710
:100C800021684FF40060486020684168114A1143B0
:100C900041602068C16821F40041C160D4E90401C9
:100CA0000843A16940EA01202168C860D4E907012E
:100CB0000843216808602068016841F00101016073
:100CC0006564202084F84100256384F842500020A8
:100CD00070BD0000008000022DE9F84F044690F836
:100CE0004100DDF828A01F4690468B4620287ED183
:100CF00094F8400001287AD0012084F84000FFF7E2
:100D000035FF0646012200901923D103204601F049
:100D1000E9FAE0BB222084F84100102084F8420068
:100D200000256564C4F8248067856563618D31485A
:100D3000FF274FF080784FF00079FF2903D92785EE
:100D40003A46009039E0618D218500903AE059469D
:100D5000204601F0B1FA13E001F0F0FAB8B92068CA
:100D6000406A616A0870606A401C6062208D401EA3
:100D700080B22085618D491E6185618D01B168B1A8
:100D8000608D3246002851462046E5D100E002E061
:100D900001F016FBD0B1012000F030B8534600221C
:100DA00080212046009601F09DFA0028F3D1608D45
:100DB000FF2804D927853A4600954346C7E7608D4A
:100DC0002085009594F828204B46C0E72168202014
:100DD000C86121684A68084B1A404A6084F841009B
:100DE00084F8425084F840500020D5E7FFE7022005
:100DF000D2E700000024008000E800FE18BCBDE837
:100E0000E08F00002DE9F84F044690F84100DDF82E
:100E100028A01F4690468B4620287ED194F840009B
:100E200001287AD0012084F84000FFF79FFE064693
:100E3000012200901923D103204601F053FAE0BBB0
:100E4000212084F84100102084F8420000256564C8
:100E5000C4F8248067856563618D3148FF274FF0B2
:100E600080784FF00079FF2903D927853A46009012
:100E700039E0618D218500903AE05946204601F025
:100E80001BFA13E001F0C2FAB8B9606A2168007871
:100E90008862606A401C6062608D401E6085208DA3
:100EA000401E80B22085618D01B168B1608D3246EF
:100EB000002851462046E5D100E002E001F080FA2A
:100EC000D0B1012000F030B85346002280212046E6
:100ED000009601F007FA0028F3D1608DFF2804D9AD
:100EE00027853A4600954346C7E7608D20850095E3
:100EF00094F828204B46C0E721682020C86121686B
:100F00004A68084B1A404A6084F8410084F842500D
:100F100084F840500020D5E7FFE70220D2E7000028
:100F20000020008000E800FE18BCBDE8E08F000053
:100F300010B586B0044614216846FFF7FEF9134940
:100F4000206888421FD1124CE06C40F00200E0643F
:100F5000E06C694600F0020005904FF4407000908C
:100F6000122001900120029003200390042004909D
:100F70000848FFF7B7FCA06D40F40010A065A06D15
:100F800000F40010059006B010BD000000540040B1
:100F900000100240000400480248816802781144B1
:100FA0008160704708000020094810B501680024DE
:100FB00041F480710160032000F088F8002000F007
:100FC00009F808B1012401E000F03CF8204610BD0A
:100FD0000020024000B5014687B000221C2000F02E
:100FE00055F81C2000F044F81348816D41F00101D0
:100FF0008165806D05A900F001000690684600F04B
:101000001BFB00F039FB0D494FF08042B0FBF1F1C2
:101010000B48491E0260416040F2E7320021C0E9FE
:101020000321816000F035FE10B1012007B000BD42
:10103000034800F061FEF9E70010024040420F0053
:1010400078010020094808B5016E41F001010166F0
:10105000016E01F001010091816D41F080518165C7
:10106000806D00F08050009008BD0000001002402C
:10107000002809DB00F01F02012191404009800097
:1010800000F1E020C0F8001170470000F0B40E4BF2
:101090001B680C46C3F30223C3F10705042D00D9D6
:1010A0000425191D072901D2002300E0DB1E0126BB
:1010B00006FA05F1491E214099409E40761E1640D1
:1010C0003143F0BC01F060BF0CED00E0064900F0D8
:1010D000070208684FF6FF03184040EA0220034A5F
:1010E00010430860704700000CED00E00000FA05B6
:1010F0001649B0F5007F0868C0F3412009D00228E6
:1011000005D0086820F4C06040F4806008600020CA
:1011100070470128FBD0086820F4C06040F40070DC
:1011200008600B483222006850430A4AB0FBF2F0D4
:10113000401C00E0401E4A69520501D50028F9D143
:1011400048694005E3D50320704700000070004067
:101150001400002040420F000248006800F4C06004
:1011600070470000007000402DE9F84F044600274A
:101170000088E54D3E46010504F1200B1DD5606E4B
:1011800078B1B0F5800F11D0B0F5000F04D0B0F5F4
:10119000400F22D001270FE0E86840F48030E8607B
:1011A0001BE00021201D01F009FA03E00021584650
:1011B00001F09AFA070010D03E462088C00426D5D8
:1011C000A06EC0B1B0F1807F1AD0B0F1007F0DD019
:1011D000B0F1407F19D0012718E0D5F88800616E82
:1011E00020F440000843C5F88800E6E7E86840F4CA
:1011F0008030E86009E00021201D01F0DFF903E004
:101200000021584601F070FA0746F7B13E462068C3
:1012100080033AD5A86D4FF00008C00009D4A86D2E
:1012200040F08050A865A86D4FF0010800F0805094
:101230000090DFF8D8A2DAF8001041F48071CAF803
:101240000010FFF793FC814610E0D5F88800A16EEE
:1012500020F040700843C5F88800D8E7FFF786FC07
:10126000A0EB0900022801D9032705E0DAF8000005
:10127000C005F3D5002F7CD04FEA0706B8F1000F68
:1012800003D0A86D20F08050A8652078C00707D053
:10129000D5F88800A16B20F003000843C5F888004A
:1012A0002078800707D5D5F88800E16B20F00C0086
:1012B0000843C5F888002078400707D5D5F888008E
:1012C000216C20F030000843C5F888002078000722
:1012D00007D5D5F88800616C20F0C0000843C5F838
:1012E00088002078C00607D5D5F88800A16C20F4C6
:1012F00040700843C5F888002078800607D5D5F8E7
:101300008800E16C20F440600843C5F8880020881C
:10131000800507D5D5F88800E16D20F4402008430A
:10132000C5F888002088400507D5D5F88800216ECB
:1013300020F440100843C5F888002078400607D5FF
:10134000D5F88800216D20F440500843C5F8880086
:101350002078000607D5D5F88800616D20F440405C
:101360000843C5F888002088C00509D5D5F888004D
:1013700000E01CE0A16D20F440300843C5F888006F
:1013800020884FF0006780044FF080684FD5D5F873
:101390008800E16E20F040600843C5F88800E06EE8
:1013A000B8423CD1E86840F48010E8603FE0D5F8EE
:1013B000900010F4407015D0D4F88410814211D000
:1013C000D5F89000D5F8901020F4407041F48031A9
:1013D000C5F89010D5F8901021F48031C5F8901020
:1013E000C5F89000C00710D0FFF7C0FB074641F2D8
:1013F000883906E0FFF7BAFBC11B494501D903262E
:101400003CE7D5F890008007F4D5D5F89000D4F8E3
:10141000841020F440700843C5F890002EE7404542
:1014200005D10121201D01F0C9F800B10646206850
:10143000000317D5D5F88800216F20F040600843DD
:10144000C5F88800206FB84204D1E86840F48010E5
:10145000E86007E0404505D10121201D01F0AEF80C
:1014600000B106462068400317D5D5F88800616FA3
:1014700020F040600843C5F88800606FB84204D18E
:10148000E86840F48010E86007E0404505D101219C
:10149000201D01F093F800B10646208840041AD5BB
:1014A000D5F88800A16F20F040500843C5F88800A7
:1014B000A06FB0F1805F03D0B0F1005F05D00AE00B
:1014C0000221201D01F07AF803E00221584601F0C4
:1014D0000BF900B106462088000407D5D5F888002E
:1014E000E16F20F080400843C5F888002068C00301
:1014F00007D555F8880FD4F8801020F00040084335
:101500002860304600F004B800100240007000402F
:1015100018BCBDE8E08F00002DE9F0470F4605003C
:1015200058D0404E306800F00700B84209D2306809
:1015300020F0070038433060306800F00700B84200
:1015400048D12878384CC0072CD06868032811D0BF
:10155000022812D0216898B1490500293ADAA16819
:1015600021F003010143A160FFF700FB804641F237
:10157000883910E021688901EFE721688903ECE7E9
:101580008907EAE7FFF7F2FAA0EB0801494502D91B
:101590000320BDE8F087A068696800F00C00B0EB9C
:1015A000810FEFD12878800705D5A068A96820F0C1
:1015B000F0000843A060306800F00700B8420BD983
:1015C000306820F0070038433060306800F00700D2
:1015D000B84201D00120DCE72878400705D5A06893
:1015E000E96820F4E0600843A0602878000706D589
:1015F000A068296920F4605040EAC100A06000F0B2
:101600005FF8A168094AC1F30311515C01F01F01A1
:10161000C8400749086007480068BDE8F047FFF781
:10162000D9BC000000200240001002408059000890
:10163000140000200C0000200F2202600C4A936866
:1016400003F003034360936803F0F003836093683F
:1016500003F4E063C36092684FF4E06303EAD202EC
:1016600002610448006800F007000860704700004D
:1016700000100240002002400548064900688968C1
:10168000054AC1F30221515C01F01F01C8407047B7
:101690001400002000100240C05900080548064907
:1016A00000688968054AC1F3C221515C01F01F013D
:1016B000C84070471400002000100240C0590008C4
:1016C00070B52549002318468A68CC6812F00C02D0
:1016D00004F00306214C4FEA640509D00C2A05D01A
:1016E000042A32D0082A00D1284670BD012E10D11C
:1016F0000B681B0704D4D1F89430C3F3032302E032
:101700000B68C3F30313164E56F82330DAB10C2AD4
:10171000EBD1C86800F00300022818D0032818D0C5
:101720001846CA68CB68C2F30212C3F306234343C8
:10173000521CB3FBF2F2C868C0F34160401C400089
:10174000B2FBF0F070BD184670BD204670BD20465B
:10175000E7E72846E5E70000001002400024F40017
:10176000905900082DE9F84304006FD0FE4DA86899
:1017700000F00C06E86800F003072078C00664D586
:1017800076B10C2E01D1012F0AD0A069002828685B
:101790007AD040F001002860FFF7E8F980465DE06C
:1017A0002868800702D5A0690028DED0216A286851
:1017B000000703D5286800F0F00004E0D5F8940095
:1017C000F02202EA1010814216D9084601F010F802
:1017D00000283BD1286840F0080028602868216A6A
:1017E00020F0F000084328606868E16920F47F4039
:1017F00040EA0120686016E0286840F00800286090
:101800002868216A20F0F000084328606868E169D0
:1018100020F47F4040EA0120686026B9206A00F089
:10182000E7FF0028D5D1FFF74BFFA968CF4AC1F3E6
:101830000311515C01F01F01C840CD490860CD483B
:101840000068FFF7C7FB00287ED12EE0CAE000BF8A
:10185000FFF78CF9A0EB0800022876D828688007EB
:10186000F6D5286840F0080028602868216A20F032
:10187000F000084328606868E16920F47F4040EA8E
:101880000120686011E0FFE720F001002860FFF709
:101890006DF9804606E000BFFFF768F9A0EB08008D
:1018A0000228DAD828688007F6D42078C00740D00C
:1018B000082E18D00C2E01D1032F14D06068B0F57B
:1018C000803F17D0B0F5A02F286817D020F48030C3
:1018D0002860286820F4802028606068E0B1FFF765
:1018E00045F9804614E02868800322D56068002806
:1018F00078D01EE0286840F48030EDE740F4802086
:101900002860F7E7FFF732F9A0EB08006428A4D8B5
:1019100028688003F6D50CE0FFF728F9804605E03B
:10192000FFF724F9A0EB0800642896D82868800304
:10193000F6D4207880073BD5042E11D00C2E01D18F
:10194000022F0DD0E06801E092E1F1E00028286864
:101950001ED040F480702860FFF708F907460CE0BD
:10196000286840050CD5E0680028C1D008E000BF19
:10197000FFF7FCF8C01B022893D828684005F7D56C
:101980006868217C20F0F85040EA016068600FE050
:1019900020F480702860FFF7E9F8074605E000BFF3
:1019A000FFF7E4F8C01B0228B1D828684005F7D437
:1019B0002078000729D560690028D5F8940012D056
:1019C00040F00100C5F89400FFF7D0F8074604E0A6
:1019D000FFF7CCF8C01B022899D8D5F894008007EF
:1019E000F6D512E000E120F00100C5F89400FFF701
:1019F000BDF8074605E000BFFFF7B8F8C01B022896
:101A000085D8D5F894008007F6D42078400766D5AD
:101A1000A86D0027C00008D4A86D40F08050A865CC
:101A2000A86D012700F08050009053480168C90557
:101A300012D40168814641F480710160FFF796F885
:101A4000804605E0FFF792F8A0EB080002286FD867
:101A5000D9F80000C005F5D5A068012816D00528E2
:101A6000D5F8900017D020F00100C5F89000D5F807
:101A7000900020F0040000BFC5F89000A06841F27B
:101A80008839C0B1FFF772F880460FE0D5F89000B2
:101A900040F00100F0E740F00400C5F89000F5E7E1
:101AA000FFF764F8A0EB0801494541D8D5F890004C
:101AB0008007F5D50EE0FFF759F8804606E000BF35
:101AC000FFF754F8A0EB0801494531D8D5F890004C
:101AD0008007F5D41FB1A86D20F08050A865A06ADA
:101AE00038B302280AD00C2E7ED0286820F08070EF
:101AF0002860286810F0205F77D0AAE0E868E26AE2
:101B000000F0030191422BD1216B00F0700209011A
:101B10001039914224D1626B00F4FE41B1EB022FE7
:101B20001ED1A26B00F40031072A03D0012202E08B
:101B30009DE089E00022914212D1A18F00F4C00201
:101B400049084905A1F50011914209D194F84010C6
:101B500000F0C06049084906A1F1007181425CD0E3
:101B60000C2E41D0286809E000100240805900087E
:101B7000140000200C0000200070004040017ED4C2
:101B80002868C0007BD4286820F080702860FEF7A9
:101B9000EDFF064605E000BFFEF7E8FF801B0228C8
:101BA00065D828688001F7D4D4E90B016FF00F02E3
:101BB00002EB01110843A18F5204490802EB415185
:101BC000626B41EA0221084394F840104FF07E42D4
:101BD000490802EB41610843A16B090940EA414011
:101BE000E968284A114001E049E02EE00843E86036
:101BF000286840F080702860E86840F08070E860F5
:101C0000FEF7B4FF044604E0FEF7B0FF001B022815
:101C10002DD828688001F7D52FE0286880012CD4C2
:101C2000286840F080702860E86840F08070E860C4
:101C3000FEF79CFF044604E0FEF798FF001B022815
:101C400015D828688001F7D517E0E86820F0030070
:101C5000E860E8680C490840E860FEF787FF044642
:101C600008E000BFFEF782FF001B022802D9032014
:101C7000BDE8F88328688001F4D40020F8E701204B
:101C8000F6E700008C809DF9FFFFEEFE704770477D
:101C9000704710B5040003D094F83D0010B107E080
:101CA000012010BD002084F83C00204600F022F8FE
:101CB000022084F83D00211D206800F0C3FE0120B1
:101CC00084F8480084F83E0084F83F0084F840001F
:101CD00084F8410084F8420084F8430084F844000A
:101CE00084F8450084F8460084F8470084F83D00F5
:101CF000002010BD7047000090F83D10012901D070
:101D000001207047022180F83D100168CA6842F046
:101D10000102CA6000681149884211D0B0F1804FB9
:101D20000ED00F4988420BD00E49884208D00E4988
:101D3000884205D00D49884202D00D49884207D11A
:101D400081680C4A1140062906D0B1F5803F03D0C6
:101D5000016841F00101016000207047002C014042
:101D60000004004000080040000C00400034014026
:101D70000040014007000100704770B5044600684C
:101D800001694FF00005C943890715D4C168C943EB
:101D9000890711D4E91E016101202077206880693C
:101DA0008007204602D0FFF7E7FF04E000F0A7F825
:101DB000204600F0A5F8257720680169C943490746
:101DC00017D4C168C943490713D46FF004010161F6
:101DD000022020772068806910F4407F204602D0DE
:101DE000FFF7CAFF04E000F08AF8204600F088F808
:101DF000257720680169C943090716D4C168C9431A
:101E0000090712D46FF008010161042020772068CF
:101E1000C0698007204602D0FFF7AEFF04E000F063
:101E20006EF8204600F06CF8257720680169C943F8
:101E3000C90617D4C168C943C90613D46FF010018D
:101E40000161082020772068C06910F4407F204697
:101E500002D0FFF791FF04E000F051F8204600F0B7
:101E60004FF8257720680169C943C90708D1C168BF
:101E7000C943C90704D1891E0161204600F041F819
:101E800020680169C943090609D4C168C943090624
:101E900005D46FF0800101612046FFF7F8FE20684D
:101EA0000169C943C90509D4C168C943090605D4F4
:101EB0006FF4807101612046FFF7E8FE2068016938
:101EC000C943490609D4C168C943490605D46FF01E
:101ED00040010161204600F01BF820680169C943F8
:101EE00089060BD4C168C943890607D46FF0200165
:101EF00001612046BDE87040FFF7CABE70BD704763
:101F000070470068B0F1804F01D1FFF745B87047C6
:101F100070477047704700002DE9F04102680446A1
:101F2000D0691168936840F60F0528424FF000050C
:101F300005D186067BD58E0679D5216E88E04D4F7A
:101F400003F001060F40374371D0C70707D0CF0514
:101F500005D501271762E26F42F00102E2678207AE
:101F600008D5DA0706D0276802223A62E26F42F00B
:101F70000402E267420708D5DA0706D02368042284
:101F80001A62E26F42F00202E26702070AD501F02C
:101F90002002324306D0236808221A62E26F42F020
:101FA0000802E267020509D54A0107D523684FF404
:101FB00000621A62E26F42F02002E267E26F002ADA
:101FC0002ED0800605D5880603D5216E09B120469E
:101FD0008847E06F21688968490602D410F0280F0D
:101FE00020D0204600F028FE20688168490614D5DC
:101FF000816821F040018160E06E70B11E4981630B
:10200000E06EFEF735FC00280AD0E06E816B00E040
:102010002046BDE8F041084709E02046FFF77AFF77
:10202000BDE8F0812046FFF775FFE567F8E7C602D7
:1020300009D55B0207D54FF4801010622046BDE839
:10204000F041FFF766BF030605D50B0603D5616EA9
:102050000029DDD1E4E74006E2D54806E0D5116865
:10206000204621F04001116020216167656600F083
:10207000CEF8D5E720010004252C000810B5040097
:1020800002D0606F10B107E0012010BD002084F87D
:102090007000204600F026F8242060672068016860
:1020A00021F001010160204600F0D6FD0128ECD0AE
:1020B000606A10B1204600F025FD2068416821F4D7
:1020C000904141602068816821F02A018160206888
:1020D000016841F0010101602046BDE8104000F0B8
:1020E00075BD000010B586B0044614216846FEF7A1
:1020F00024F917492068884227D11648816D41F498
:1021000000318165816D01F400310591C16C41F0B0
:102110000101C164C06C694600F0010005900C200B
:1021200000900220019000200290032003900720DD
:1021300004904FF09040FEF7D5FB002206212620A8
:10214000FEF7A4FF2620FEF793FF06B010BD0000A7
:1021500000440040001002402DE9F8430446406F5F
:102160001F4616460D4620284FD1CDB1C6B194F872
:102170007000012849D0012084F870004FF0000859
:10218000C4F87C8021206067FEF7F0FCA4F8506062
:102190008146A4F85260A068B0F5805F03D004E0E7
:1021A0000120BDE8F883206928B12E465FF00005C4
:1021B00084F8708010E00026FAE78021204600F0C5
:1021C00071FEB8B9C6B116F8010B21680885B4F8DC
:1021D0005200401EA4F85200B4F852004B464FF093
:1021E000000200970028E8D14FF04001204600F09F
:1021F00059FE30B10320D4E735F8020BC0F30800D4
:10220000E3E7202060670020CBE70220C9E77047A2
:10221000FEE701688A69D243920701D400228A62EC
:1022200000688169C943C90703D0816941F0010190
:10223000816170472DE9F0410446006890460E46E2
:102240008069C043C00633D40025202720688069F8
:10225000C043800615D5701CF8D0FEF787FCA0EBB4
:102260000800B04201D8002EF0D154F8440F40F0DD
:10227000200044F804096770A57025700120BDE8AE
:10228000F08121681020C8612068C7612046FFF7EF
:10229000C0FF54F8440B4168064A11404160206871
:1022A00040F0040044F820096777A5772577E5E733
:1022B0000020E4E700E800FEF0B50568059C6868CA
:1022C0004FF48066064FC1F3090106EA545641EA0D
:1022D00002413E431943B043214308436860F0BDC7
:1022E000FF63FF032DE9F0411D4617460E460446E5
:1022F000DDF8188008E0681C06D0FEF737FCA0EB7C
:102300000800A8420BD855B12068806936EA000061
:1023100012D00020B842EED00020BDE8F08154F881
:10232000440F40F0200044F8040920206070002091
:10233000A07020700120F0E70120EBE72DE9F041CB
:10234000002690460F460446202525E042463946A1
:102350002046FFF76FFF78BB20688069C043800686
:1023600013D420688169C943490701D4218DC1B9BB
:10237000C56154F8440B4168104A1140416044F86B
:1023800020696577A677267716E0FEF7EFFBA0EBCE
:102390000800B84208D83FB120688069C0434007B0
:1023A000D4D40020BDE8F08154F8440F40F0200060
:1023B00044F80409657026700120F3E700E800FE88
:1023C00070B516460D4604460DE0324629462046B5
:1023D000FFF730FF08B1012070BDFEF7C7FB801B7F
:1023E000A84207D835B120688069C0438006ECD484
:1023F000002070BD54F8440F40F0200044F8040958
:10240000202060700020A0702070E4E770B51646B0
:102410000D4604460FE0324629462046FFF70AFFE4
:1024200008B1012070BD681C05D0FEF79FFB801B22
:10243000A84207D835B120688069C0438007EAD434
:10244000002070BD54F8440F40F0200044F8040907
:10245000202060700020A0702070E2E710B5074ACD
:102460000021074801F02CFB064C044A00212060A3
:102470002432054801F024FB606010BD3859000883
:102480006D280008000000207928000830B587B0CA
:1024900014216846FDF751FF1F48C16C41F004014B
:1024A000C164C16C01F004010591C16C41F080016F
:1024B000C164C16C01F080010591C16C41F0010162
:1024C000C164C16C01F001010591C16C41F00201D0
:1024D000C164C06C4FF0904500F0020005900022EE
:1024E00020212846FEF739FB4FF4005000900B489E
:1024F0000024CDE9010469460948FEF7F3F92020DC
:1025000000900120CDE90104694628460394FEF7B6
:10251000E9F907B030BD00000010024000002110B2
:1025200000080048134810B5114901601249416084
:1025300000210122C0E90212016141618161C16192
:102540000162FEF76DFB08B1FEF791F90021094821
:10255000FEF712FB08B1FEF78AF900210548FEF7E5
:1025600036FB002803D0BDE81040FEF780B910BD4F
:1025700000540040AC000020EC9C90100D4810B5B9
:102580000B4901604FF4E1314160002181600C2270
:10259000C160C0E904128161C16101624162FFF75B
:1025A0006DFD002803D0BDE81040FEF760B910BDF6
:1025B00000440040F8000020FEE770472DE9F0419C
:1025C000444C05468846E0680026810728680DD0FF
:1025D000E16801F00301814216D1A8B1E0686968A1
:1025E000C0F30210401C88420ED120E0012804D024
:1025F000022805D0032807D108E02168890701E0F7
:1026000021684905002907DB01265FE0216889036D
:1026100002D421684903F5E7E1686A686FF00F03A7
:1026200021F0730103EB021211430143E1602068C2
:1026300020F080602060FEF799FA074605E000BFB1
:10264000FEF794FAC01B022837D820680001F7D49F
:10265000B8F1000F18D0B8F1010F1ED0287D4FF04F
:102660007E41400801EB4060A96840EA01202169F1
:10267000194A114008432061206840F080602060C2
:10268000FEF774FA07461AE0A868E968000209092B
:1026900040EA41402169114AEBE7288A1049400885
:1026A00001EB4050A96840EA012021690D4AE0E7AA
:1026B000FEF75CFAC01B022801D9032606E0206859
:1026C0000001F5D52069A969084320613046BDE8BD
:1026D000F081000000100240FF80FFF9FF80FDFF45
:1026E0000000E0FFFF809FFF2DE9F0413D4C0646D2
:1026F0008846E0680025810730680DD0E16801F068
:102700000301814216D1A8B1E0687168C0F30210DC
:10271000401C88420ED120E0012804D0022805D0B8
:10272000032807D108E02168890701E021684905ED
:10273000002907DB012551E02168890302D42168C3
:102740004903F5E7E16872686FF00F0321F0730148
:1027500003EB021211430143E160206820F0805036
:102760002060FEF703FA074605E000BFFEF7FEF91A
:10277000C01B022829D820688000F7D4B8F1000FC8
:1027800015D0307C4FF07E41400801EB4060B168CD
:1027900040EA01206169144A1140084360612068E1
:1027A00040F080502060FEF7E1F907460FE0B06886
:1027B000F1680002090940EA414061690B4AEBE710
:1027C000FEF7D4F9C01B022801D9032506E02068D2
:1027D0008000F5D560697169084360612846BDE8ED
:1027E000F081000000100240FF80FFF9FF80FDFF34
:1027F000F8B51C4D06460024A86DC00002D5FEF7B2
:10280000ABFC0DE0A86D40F08050A865A86D00F00D
:1028100080500090FEF7A0FCA96D21F08051A965C1
:10282000B0F5007F04D0802E07D94FF003040AE0F2
:10283000802E08D9A02E01D804E001D1022402E0A4
:10284000702E00D101240848016821F007012143BE
:102850000160006800F00700A04201D00120F8BD2F
:102860000020F8BD00100240002002404FF47A74AE
:10287000204601F02FF8FBE72DED028B84B04FF4DA
:10288000FA6602F075FE029002E021A000F064FBFF
:1028900001F024FF0028F8D101F006FF234F4FF08C
:1028A00090483C46391D214801F006FF40B258B11E
:1028B0001FA000F051FB20214046FEF746F93146AB
:1028C00002A802F089F8ECE794ED010A9FED1F8A57
:1028D0002746F8EEC00A80EE880A10EE100AFDF7CF
:1028E00037FD97ED000A04460D46F8EEC00A80EE6B
:1028F000880A10EE100AFDF72BFD41EC100B14486E
:1029000053EC102BCDE9004501F040F9D3E700006E
:102910005348542073656E736F722070726F6269D2
:102920006E67206661696C65640A0000940000208F
:102930006572726F722072656164696E67206D6581
:1029400061737572656D656E740A000000007A44EB
:10295000F459000810B5502080F31188BFF34F8F51
:10296000BFF36F8F02F00AFE18B104494FF0805098
:102970000860002080F3118810BD000004ED00E025
:1029800010B5B8B0442122A8FDF7D7FC142133A814
:10299000FDF7D3FC88216846FDF7CFFC0220C1017A
:1029A00025911021229026912C900121CDE92D0115
:1029B0000A212F910721CDE93010329022A8FEF78D
:1029C000D1FE0F20002433900320CDE93404369447
:1029D000042133A83794FEF79FFD0F9442201494EE
:1029E00000906846FEF7C0FB4FF40070FEF780FBD6
:1029F00038B010BD0D48016841F4700101600C4809
:102A0000016841F001010160002181600268094B09
:102A10001A4002608214C260026822F480220260BE
:102A200081610249C00380390860704788ED00E089
:102A300000100240FFFFF6EA0148FFF79EB90000D0
:102A4000780100202DE9F0470268264B264D274EDD
:102A5000274F284C4FF0804A984209D0504507D064
:102A6000A84205D0B04203D0B84201D0A04204D160
:102A700022F0700C4A6842EA0C02DFF87CC0DFF8F2
:102A80007C80DFF87C9098420FD050450DD0A84252
:102A90000BD0B04209D0B84207D0A04205D0604563
:102AA00003D0404501D0484503D122F44075CA689F
:102AB0002A434D6922F080022A4302608A68C2627A
:102AC0000A688262984207D0A04205D0604503D0D0
:102AD000404501D0484501D10969016301214161A7
:102AE000BDE8F087002C01400004004000080040D1
:102AF000000C00400034014000400140004401400F
:102B00000048014090F82410C90706D001684A68BF
:102B1000836A22F400321A434A6090F8241089072D
:102B200006D501684A68C36A22F480321A434A60B3
:102B300090F82410490706D501684A68036B22F40F
:102B400080221A434A6090F82410090706D50168CC
:102B50004A68436B22F400421A434A6090F82410FA
:102B6000C90606D501688A68836B22F480521A432D
:102B70008A6090F82410890606D501688A68C36BBC
:102B800022F400521A438A6090F82410490611D5A5
:102B900001684A68036C22F480121A434A60016C8F
:102BA000B1F5801F06D101684A68436C22F4C00267
:102BB0001A434A6090F82410090606D501684A684D
:102BC000806C22F4002202434A607047F8B5002668
:102BD0000446C667FDF7CAFF0546206800686FF027
:102BE0007E47000708D52B4600224FF400112046EF
:102BF000009700F057F960B92068006840070AD5CF
:102C00002B4600224FF480012046009700F04AF93D
:102C100008B10320F8BD20206067A06784F87060C9
:102C20000020F8BD10B5806A0021A0F85A10A0F865
:102C30005210FFF76FF910BD01680A6822F4907214
:102C40000A6001688A6822F001028A602021816797
:102C500000210166704700002DE9F041044601683B
:102C600080682269E3691043626900251A431043B2
:102C7000824F0A68824B1A4002430A60206841680A
:102C8000E26821F44051114341602168A069B942D2
:102C900001D0226A10438A6822F4306202438A60BB
:102CA0007849226878488A420DD1D0F8880010F01F
:102CB000030006D0012866D0022854D0032851D141
:102CC00063E001204FE071498A420BD1D0F88800BF
:102CD00010F00C0047D0042845D0082851D00C280B
:102CE00040D152E06A498A420BD1D0F8880010F0F6
:102CF000300038D0102846D0202842D0302831D19A
:102D000043E064498A420BD1D0F8880010F0C0003B
:102D100029D0402837D0802833D0C02822D134E0B1
:102D20005D498A420ED1D0F8880010F440701AD064
:102D3000B0F5807F27D0B0F5007F22D0B0F5407F7E
:102D400010D122E0BA420DD1D0F8880010F44060D2
:102D500009D0B0F5806F16D0B0F5006F11D0B0F586
:102D6000406F12D010204D4B00264FF40041BA4264
:102D70002ED160B1022813D004280BD0082874D1BA
:102D80000DE00220EFE70420EDE70820EBE7FEF777
:102D900073FC01E0FEF794FC030001D169E00B46EF
:102DA000626802EB420098425FD8B3EB023F5CD806
:102DB000190E180273084FEA3207C019594100234F
:102DC000FDF76EFA364AA0F5407191424FD94CE0BA
:102DD000E2694FF6EF778A4228D1092845D2DFE829
:102DE00000F0050811440D4444441000FEF744FC73
:102DF00001E0FEF753FC030004D13AE0FEF760FC6B
:102E0000F9E70B466068590001EB5001B1FBF0F0A7
:102E100080B2A0F11001B94227D84FF6F0710140FD
:102E2000C0F3420001432068C16022E009281CD29F
:102E3000DFE800F00508111B0D1B1B1B1000FEF73F
:102E40001BFC01E0FEF72AFC030004D111E0FEF7B1
:102E500037FCF9E70B46606803EB5001B1FBF0F07B
:102E600080B2A0F11001B94201D9012501E0216829
:102E7000C860266628466666BDE8F081008000408E
:102E8000F369FFEF003801400010024000440040A9
:102E900000480040004C0040005000400024F40076
:102EA000FFFC0F002DE9F0479A4617460E460446F0
:102EB0004FF000094FF02008089D39E0681C37D01A
:102EC000FDF754FEA0EB0A00A84222D80DB32068FB
:102ED000016849072CD5C069C043000528D4216882
:102EE0004FF4006008622068016821F4D07101602D
:102EF0002068816821F001018160C4F87480C4F801
:102F00007880C4F87C8000BF84F870900320BDE80E
:102F1000F0872068016821F4D07101602068816821
:102F200021F001018160C4F87480C4F87880EBE777
:102F30002068C06936EA000004D00020B842BDD045
:102F40000020E4E70120F9E70148FEF7E5BF0000B3
:102F5000F8000020FEE700000FB4054B10B503A9F0
:102F6000044A029800F0F6F810BC5DF814FB00006B
:102F700089380008A8000020014B024A00F0EAB896
:102F800089380008A80000200907090E002804DB82
:102F900000F1E02080F80014704700F00F0000F10D
:102FA000E02080F8141D704702E008C8121F08C115
:102FB000002AFAD170477047002001E001C1121FBA
:102FC000002AFBD1704700002DE9FF5F82B000218D
:102FD000DDE90430020DDDF840B0034318D044F6BB
:102FE0001050A2F2FF3242431514119801281FD04D
:102FF000A5EB0B00401C5FEA000A4FF000064E4FA5
:10300000DFF83891B046504615D5CAF1000413E0F8
:10301000119801244AA3012801D16FEA0B010298FB
:10302000119AC0E90031C0E9024206B000F08EB842
:10303000CBF10000DFE704460021404A491842EB8B
:103040000450CDE9001012E0E00707D032463B46BD
:1030500040464946FDF773FA8046894632463B466C
:1030600010461946FDF76BFA06460F466410002C11
:10307000EAD1DDE90401DDE90023BAF1000F06DA47
:10308000FDF75DFA42464B46FDF759FA05E0FDF7BC
:10309000CBFA42464B46FDF7C7FA04460E460022DD
:1030A000284BFDF749FB03D84FF0FF30014607E0FE
:1030B0000022254B20463146FDF792F9FDF723FB10
:1030C000102409E0002C0ADB0A220023FDF7E8F8AF
:1030D000039B30321A55641E50EA0102F2D1641C7F
:1030E000039AC4F111031444119A012A03D0012256
:1030F00008430DD10AE0084304D000204FF0110B23
:10310000119072E7A3EB0B056D1E0DE05B4504DD2E
:103110004FF0000205F1010504E003DA4FF0000270
:10312000A5F10105002AECD002981199C0E90231FD
:10313000C0E9004579E70000000014400000F03FBE
:10314000300000000000F0430000E03F30BCBDE86C
:10315000C09F00002DE9FF4F95B09B46894606466B
:1031600000250FE2252877D100242746F84A0121BF
:10317000059400E0044316F8013F203B01FA03F0F8
:103180001042F7D130782A2811D06FF02F03307811
:10319000A0F13002092A16D8059A44F0020402EB85
:1031A000820203EB42021044761C0590EFE759F8C7
:1031B000042B0592002A03DA504244F4005405908F
:1031C00044F00204761C30782E2816D116F8010F30
:1031D00044F004042A280DD06FF02F023078A0F1BB
:1031E0003003092B09D807EB870302EB4303C71809
:1031F000761CF3E759F8047B761C30786C280FD0E6
:1032000006DC4C2817D068280DD06A2814D104E0B9
:10321000742810D07A280FD10DE044F400140AE08D
:1032200044F4801401E044F440147278824202D1E4
:1032300004F58014761C761C307866280BD013DCDD
:10324000582877D009DC002875D04528F6D04628C4
:10325000F4D047281AD19DE118E0632835D06428BE
:1032600079D0652812D195E1702873D008DC6728E1
:10327000F1D069286FD06E280DD06F2806D1B5E047
:1032800073282CD0752875D0782874D05A46179991
:1032900090476D1C75E1C4F30250022809D0032841
:1032A0000DD0D9F8001004280DD00D6009F10409E3
:1032B00067E1D9F80010EA17C1E90052F6E7D9F83A
:1032C00000100D80F2E70D70F0E719F8041B8DF87F
:1032D000001000208DF80100EA46012003E059F8B3
:1032E00004AB4FF0FF3061074FF0000102D40DE056
:1032F00008F101018846B9420FDA8045F8DB1AF877
:1033000008100029F4D108E008F101018846814243
:10331000FADB1AF808100029F6D105985B46A0EBF5
:10332000080721463846179A00F097FA284400EB20
:10333000080507E04DE029E10DE01AF8010B5A46B7
:1033400017999047B8F10108F7D25B4621463846F5
:10335000179A13E142E00A220092C4F302524FF09E
:10336000000A022A08D059F804CB032A4FEAEC716C
:103370000AD00DE029E02AE009F1070121F0070257
:10338000F2E802C1914609E00FFA8CFC4FEAEC71B9
:10339000042A03D14FFA8CFC4FEAEC71002907DABA
:1033A0000A460021DCF1000C61EB02012D2202E053
:1033B000220504D52B228DF80420012203E0E20728
:1033C00001D02022F7E7904659E00A2102E01022BE
:1033D0000DE010214FF0000A00910BE010224FF099
:1033E000000A44F004040827009203E008224FF08A
:1033F000000A0092C4F30252022A05D059F804CB05
:103400000021032A08D009E009F1070121F0070291
:10341000F2E802C1914605E01FFA8CFC042A01D1B2
:103420000CF0FF0C4FF00008220728D5702806D0BA
:10343000009B83F0100353EA0A0305D00EE04022FC
:103440008DF80420012208E05CEA010206D0302257
:103450008DF804208DF8050002229046009B83F031
:10346000080353EA0A030AD15CEA010201D16207A8
:1034700005D530228DF804204FF001087F1E582812
:1034800004D034A003900EA802900DE036A0F9E716
:1034900053466046009AFCF703FF84460398825C1B
:1034A0000298401E029002705CEA0100F0D102987E
:1034B00006A9081A00F1200A600702D524F4803416
:1034C00000E00127574502DDA7EB0A0000E00020DD
:1034D00000EB0A01009005984144401A0590E00372
:1034E00006D45B462146179A059800F0B6F90544C4
:1034F000002706E001A85A46C05D179990476D1C49
:103500007F1C4745F6DBE0030CD55B462146179A46
:10351000059800F0A2F9054404E030205A461799B6
:1035200090476D1C0099481E00900029F5DC08E0CA
:10353000029802995A460078491C029117999047BF
:103540006D1CBAF10001AAF1010AF1DC65E100008D
:103550000928010030313233343536373839616269
:10356000636465660000000030313233343536372D
:1035700038394142434445460000000000F05BF901
:103580000544761C307800287FF4ECAD19B028464D
:1035900000F04EB9620700D4062709F1070222F0B5
:1035A000070CFCE80223E14603F000485FEA080C40
:1035B00002D00FF2702C0DE05FEA045C02D50FF22E
:1035C000682C07E05FEAC47C02D00FF2602C01E0B7
:1035D000AFF2700C4FF0FF3823F00043CDF850C02D
:1035E00065280CD006DC452809D046281DD0472880
:1035F0003DD13DE0662818D067287ED138E0002113
:10360000112F01DB112000E0781CCDE9000106A993
:103610000EA8FFF7D9FCDDE90F010E9A03910021F6
:10362000009207F1010A04914DE04FF0004000972D
:10363000CDE9011006A90EA8FFF7C6FCDDE90F02CF
:1036400003920E9B11990022DDF80CA000930492C6
:1036500011B9791C00EB010AB7EB0A0004D4C0F1E0
:10366000FF3007F1010A0490AAEB0700019044E043
:10367000012F00DA01270021112F01DD112000E0C8
:103680003846CDE9000106A90EA8FFF79DFCDDE94B
:103690000F010E9A0391002104910092BA4621076E
:1036A0000CD40399514500DA8A46BAF1010F05DDC1
:1036B000009AAAF10101515C302908D0B84202DA1F
:1036C00010F1040F06DA0121CDE9011015E0AAF18D
:1036D0000101E9E7002805DC049901440491AAEB03
:1036E000000102E0411C514500DD8A460499401A60
:1036F000401C01904FF000400290200704D4019834
:10370000504501DBCDF8048000208DF84F00029871
:103710000DF14F07B0F1004F25D02B200E900298ED
:103720004FF0020800280CDA404202902D200E9043
:1037300007E00A210298FCF71EFE3031029007F8DC
:10374000011DB8F10001A8F10108F2DC029800287F
:10375000EFD1791E0E980870307800F0200040F00C
:10376000450007F8020D12A8C01B00F107081498C5
:10377000007800B1012000EB0A01019801EBE07133
:1037800005984144401A401E0590E00306D45B466C
:103790002146179A059800F060F8054414980078BF
:1037A00018B15A46179990476D1CE00324D55B4623
:1037B0002146179A059800F050F805441CE004983B
:1037C000002807DBDDE90301884203DD0098405C47
:1037D000179901E0179930205A469047049805F14F
:1037E0000105401C04900198401E019004D12E2038
:1037F0005A46179990476D1CBAF10001AAF1010AC7
:10380000DDDC05E017F8010B5A46179990476D1C4F
:10381000B8F10001A8F10108F4DC5B462146179AD3
:103820000598ABE62D0000002B00000020000000F2
:1038300030BCBDE8C08F2DE9F041044600251E468E
:103840001746880404D405E039462020B0476D1C93
:10385000641EF9D52846BDE8F0812DE9F041044603
:1038600000251E469046C80301D5302700E02027DA
:10387000880404D505E041463846B0476D1C641EF7
:10388000F9D52846BDE8F08113B547F230542346F8
:10389000012269460348FEF75FFC0028F7D1009833
:1038A0001CBD0000F8000020FDF77EFBFFF768F864
:1038B000FEF7ECFDFEF736FEFEF760FE00F052F973
:1038C00000F07CF900F020F8FEF7C8FD00F036F8B3
:1038D000FEE7000010B5EFF3058179B9EFF3108131
:1038E00011B9EFF3118119B106490968022905D010
:1038F000002408B101F04AF8204610BD6FF005041D
:10390000FAE7000068000020EFF3058068B9EFF3E4
:1039100010820949086812B9EFF311820AB102282E
:1039200003D028B14FF0FF3070476FF005007047AB
:1039300001200860002070476800002010B5EFF3F8
:10394000058070B9EFF310820A49086812B9EFF3E5
:1039500011820AB1022804D0012805D04FF0FF30AF
:1039600010BD6FF0050010BD0220086001F004F9E1
:10397000002010BD680000202DE9F0410D460146F1
:1039800021F0010001F001014FF00004EFF3058286
:10399000A2B9EFF3108212B9EFF311821AB1104AF3
:1039A0001268022A0AD060B100296FF001066FF098
:1039B000020729460BD001F011FD0AE06FF0050463
:1039C0000BE06FF0030408E035B1344605E001F088
:1039D00049FC0128F8D100E03C462046BDE8F081D2
:1039E0006800002070B505464FF00004EFF3058035
:1039F000A0BBEFF3108010B9EFF3118018B1184895
:103A0000006802282AD00DB1686800E00020C107D4
:103A100001D0012600E0002600071FD46DB1D5E9D2
:103A2000021021B1502819D31EB1042002E020B1A8
:103A300014E0012001F0A3F905E00EB1042000E03C
:103A4000012001F091F9040008D00DB1296800E0CF
:103A5000002100F065FF0EB144F00104204670BD66
:103A60006800002070B5014621F0010001F001015D
:103A70004FF00004EFF3058282B9EFF3108212B920
:103A8000EFF311821AB10D4A1268022A06D040B132
:103A90006FF0020541B101F029FB0AE06FF0050467
:103AA0000AE06FF0030407E000231A46194601F00C
:103AB0000FFA012800D02C46204670BD6800002077
:103AC0002DE9FF414FEA01034FF00005EFF30581B7
:103AD000039599BBEFF3108111B9EFF3118119B17F
:103AE0001F490968022938D040B3802618210024D4
:103AF0004AB3176807B13C4697691FB139467F1E24
:103B0000382F02D21779FF0703D0002004B0BDE898
:103B1000F081576907B1BE08D2F808C0BCF1000FA8
:103B20000DD0D5685C2D18D312693AB137B18DE844
:103B300006103246214601F0DBFC03900DE0D76809
:103B40005FB912694AB903AACDE90012B2B221469F
:103B500001F09EFC012800D003950398D6E70000F1
:103B6000680000201FB5074B0FCB8DE80F0068469B
:103B7000FFF738FF0449486000B900BFFFF772FF44
:103B80001FBD0000C85900089C0000200FB44FF072
:103B9000FF3170B5084D05AC286801F063FB214684
:103BA0000498FFF7E9F900231A461946286801F03E
:103BB0008FF970BC5DF814FBA400002010B5012043
:103BC00001F0D2F80149086010BD0000A4000020F7
:103BD0002DE9F041134C0F46054666692068001D2B
:103BE00000F0A4FD681C07D137B12168BDE8F041A1
:103BF0000D48091D00F0EABD20683544B542456016
:103C0000216805D2A068BDE8F041091D00F0C6BDDD
:103C10006068091D00F0C2FD206B854200D225635B
:103C2000BDE8F08118000020B40600202DE9F04125
:103C3000054600F0D7FD2D4C2069401C206120680E
:103C40002B4F10B1E06930B32BE0256020690128CB
:103C500027D1002606EB860007EB800000F090FDE0
:103C6000761C382EF6D3234800F08AFD2148143004
:103C700000F086FD1F48283000F082FD1D483C30D2
:103C800000F07EFD1B48503000F07AFD194860605E
:103C90001430A06005E02068E96AC06A884200D854
:103CA0002560E06A401CE0626864E86AA1698842B5
:103CB00000D9A06100EB800007EB8000291D00F017
:103CC00085FD00F0AFFDE06900280CD02068E96AAE
:103CD000C06A884207D208494FF080500860BFF39D
:103CE0004F8FBFF36F8FBDE8F081000018000020F8
:103CF000040200206406002004ED00E038B500F066
:103D000071FD104CA068C8B90F4800F039FD0E488D
:103D1000143000F035FD0C482060143060600A4B10
:103D200000202833009003F1500210210A2001F0F6
:103D300057F8A06010B105A100F0F2FDBDE83840D1
:103D400000F070BD54000020C8060020546D725170
:103D50000000000030B4026C0B46002A0BD0C16892
:103D60001144C1608468A14201D30168C16030BCC4
:103D70001846FCF7C9BA30BC70472DE9F041856B95
:103D8000174604460026026C82B1C7B1E068FCF712
:103D9000BBFAE168206C091AE1602268914202D204
:103DA000A168081AE060022F16D017E02068A8B9B1
:103DB000A06801F047FC06460020A0600EE06068A5
:103DC000FCF7A2FA216C606808446060A168884230
:103DD00004D32068606001E005B16D1E6D1CA56311
:103DE0003046BDE8F08110B5044690F8590058B14E
:103DF00001280CD002280FD0502080F31188BFF387
:103E00004F8FBFF36F8FFEE7206B00F01FFD204642
:103E1000BDE8104000F01ABD10BD000010484FF47E
:103E20008051420706D0C01D0D4920F00700411AFD
:103E3000C1F580510B4A00230144C2E9000308394F
:103E4000103A21F0070111604B600B600B1AC0E9BA
:103E5000001393604FF000405360D0607047000043
:103E6000980E00207C000020144E154CA6F29C47B2
:103E70004FF08058DFF84C9012E000BF00F0B2FC29
:103E8000F068C568281D00F051FC2069401E2061C3
:103E9000E068401EE06000F0C5FC2846FFF7A3FF85
:103EA000E0680028EAD138680128F9D9C9F800800B
:103EB000BFF34F8FBFF36F8FF2E70000A006002023
:103EC0001800002004ED00E0002807D000218160E8
:103ED00001600B460A46C16000F0FABF704700005F
:103EE00070B51D46049C51B1C4F80020C4E90F010F
:103EF0000121204600F0A8FF84F84C5070BD2460DA
:103F0000F4E700002DE9F05F8846DDE90B941546E3
:103F1000834691009A460A9EA522206BFCF706FA7A
:103F20006FF00301206B01EB8501084420F00707C7
:103F3000780707D0502080F31188BFF34F8FBFF36D
:103F40006F8FFEE70025B8F1000F0FD05FF0000083
:103F5000221818F8001082F8341018F8001011B167
:103F6000401C1028F4D384F8435001E084F8345006
:103F7000382E00D33726E662C4E91365201D00F011
:103F80000AFC04F1180000F006FC2461C6F13800B8
:103F90006462A061656584F85850524659463846B7
:103FA00000F068FA2060B9F1000F01D0C9F80040B4
:103FB00000F000B830BCBDE8C09F000030B511492A
:103FC00000E011460A688242FBD34B685C188442C9
:103FD00003D1406818444860084643681C1894425E
:103FE00009D1084C103C2468A24209D052681A44F6
:103FF00042600A6812680260814200D0086030BDE9
:104000000460F9E77C00002070B5002441600B4D8E
:104010000061914206D8D11A8269914206D2011DEF
:10402000686807E09A4203D2994201D3012403E071
:10403000011D286800F0B2FB204670BD540000202E
:1040400010B5044600F0CEFBA06B28B15FF0000471
:1040500000F0E8FB204610BD0124F9E730B589B037
:104060003C4D6EE00498002806DADDE90601059A69
:1040700090470498002864DB069C606910B1201DFD
:1040800000F054FB03A800F0D7F8024604980A2871
:1040900057D2DFE800F00505052D334A05052D331D
:1040A00094F8280040F0010084F828000599A069E0
:1040B000059B01442046FFF7A7FF68B3216A20460D
:1040C000884794F8280040073BD5002000900598C9
:1040D000A169002342181946204601F0F9FBD8B91E
:1040E000502080F31188BFF34F8FBFF36F8FFEE72F
:1040F00014F8280F20F00100207022E094F8280026
:1041000040F0010084F828000598A06128B18118CA
:1041100013462046FFF778FF13E0502080F3118804
:10412000BFF34F8FBFF36F8FFEE794F8280081072E
:1041300003D4204600F08AFB03E020F0010084F85D
:104140002800002204A9A86800F0F0FF002889D107
:1041500009B030BD540000202DE9FC410F46054652
:1041600000F04EFD01A800F067F80446019818B170
:1041700001F01CFBBDE8FC81254EAFB17068006802
:10418000D0B30027291B3A46B06800F0DDFB01F0F0
:104190000DFB0028EED11F494FF080500860BFF39F
:1041A0004F8FBFF36F8FE5E7A542EBD801F0FEFA22
:1041B00030682746C068C468201D00F0B7FA94F83C
:1041C0002800410719D5A0692B4641193A462046D7
:1041D000FFF71AFFA8B100200346014600902A46C7
:1041E000204601F075FB60B9502080F31188BFF3C1
:1041F0004F8FBFF36F8FFEE707E020F0010084F8D8
:104200002800216A20468847B4E70127BAE7000062
:104210005400002004ED00E006484168096829B117
:104220004168C968C9684968016370474FF0FF3148
:10423000FAE700001800002070B5054601F098F973
:10424000064E04463069844203D200F009F801208A
:1042500000E0002028602046346170BD540000203A
:10426000F8B5194D20E0C068C4680668201D00F04C
:104270005DFA216A2046884794F82800400713D544
:10428000A0693044B04206D924616060211D2868CD
:1042900000F084FA08E00020034601460090324610
:1042A000204601F015FB38B1286801680029DAD1F1
:1042B0006968C5E90010F8BD502080F31188BFF38C
:1042C0004F8FBFF36F8FFEE754000020084840680F
:1042D000401C4FF0500080F3118804D0BFF34F8F83
:1042E000BFF36F8FFEE7BFF34F8FBFF36F8FFEE714
:1042F00084000020074C2068016841B1C06800219B
:10430000D0F80000FFF728FFFFF7A8FEF3E7012130
:104310000020F7E7540000202DE9F041044600F0AA
:1043200061FA94F9455004F1240609E0606A48B145
:10433000304601F003FA08B100F09CFB6D1E6DB22F
:10434000002DF3DC4FF0FF3684F8456000F06AFA88
:1043500000F048FA94F9445004F1100709E020698C
:1043600048B1384601F0EAF908B100F083FB6D1E50
:104370006DB2002DF3DC84F84460BDE8F04100F03C
:1043800051BA00002DE9F0410546002700F038FC45
:10439000314E306808B9FFF741FDF06805424BD156
:1043A000C5B3083568070ED005F00700C0F1080056
:1043B0000544680707D0502080F31188BFF34F8F62
:1043C000BFF36F8FFEE72DB37068854234D8224863
:1043D000103001460C6801E020460C466168A94295
:1043E00002D221680029F7D131688C4224D00768B5
:1043F0002168016060680837411B10290FD96019D6
:10440000420708D0502080F31188BFF34F8FBFF3CD
:104410006F8FFEE710E041606560FFF7CFFD6168D8
:104420007068401A7060B268904200D2B060F06864
:1044300001430020C4E9000101F0B8F9780707D072
:10444000502080F31188BFF34F8FBFF36F8FFEE7CB
:104450003846BDE8F08100006C000020044908687F
:1044600018B10868026D521C0265086870470000A8
:104470001800002010B5031F4FF080741C601B1F34
:1044800021F001011960191F044B0B6014390A60F7
:10449000091F6FF0020244380A6010BDCD420008C7
:1044A00010B5144600F007F8A04202D04FF0FF30DC
:1044B00010BD002010BD70B50446FF20002231253C
:1044C0000FE0A35C58400823060602D585EA4000A9
:1044D00000E040005B1EC0B213F0FF03F4D1521C99
:1044E00092B28A42EDD370BD2DE9F0410546080A2B
:1044F00028700220984616466970002415E000BF17
:1045000036F81410090A2954401C80B216F8141009
:104510002954401C87B2E8190221801EFFF7CBFF07
:10452000E8557F1C641CB8B2E4B24445E8D3BDE84A
:10453000F081F8B51D461446074600231A46684622
:10454000069EFFF7D1FF02226946384600F06AF85E
:10455000002808D114B1204600F08EF832462946D2
:10456000384600F049F8F8BDF8B50B4C0E46074642
:1045700015464FF0FF312068FFF7FEF964200090E8
:1045800079002B4632460548FCF7A6FB45B2206869
:10459000FFF768FA2846F8BDA0000020AC00002014
:1045A0002DE9F043894602EB420191B08FB26E468D
:1045B0003A463146FFF7D8FF00281AD10024254695
:1045C00014E03019804682780221FFF769FF002845
:1045D0000FD1315D09F805106D1CA8B298F80120C3
:1045E00009F80020401CE41C85B2A4B2BC42E8D308
:1045F000002011B0BDE8F08370B515460C46FFF7FA
:10460000CFFF00280CD108E034F810100A0242EA6B
:10461000112124F81010401CC0B2A842F4D300208D
:1046200070BD0000F8B50B4C0E46074615464FF01E
:10463000FF312068FFF7A0F96420009079002B4635
:1046400032460548FCF7DEFB45B22068FFF70AFA60
:104650002846F8BDA0000020AC00002038B5044674
:1046600000231A466846FFF73FFF022269462046AC
:10467000FFF7D8FF38BD00004FF47A7110B5B0FBDA
:10468000F1F4B0FBF1F201FB120000B1641CFCF785
:1046900069FA0449884200D2641C2046BDE81040F3
:1046A000FCF70EB900010101024801884420FFF720
:1046B000D5BF00009000002070B50C460546FFF7FE
:1046C000F3FF002809D143F69820FFF7D5FF2146D4
:1046D0002846BDE8704000F00DB870BD1CB5012043
:1046E000009001AB4FF47A724FF22D314420FFF766
:1046F00020FF1CBD38B50C46054602226946442001
:10470000FFF77AFFBDF8001045F273525143064A95
:1047100002EB51312960BDF8021043F2D40251433B
:10472000490B216038BD00003850FFFFD0E901324D
:1047300001699A60D0E901235A604A68824201D136
:1047400082684A60002202610868401E08600868AA
:1047500070470000034B036003F15C000860802099
:1047600010607047E0070020044B036003F15C0019
:1047700008604FF480701060704700003C0A002011
:1047800000F108014FF0FF32C0E90112C160016180
:1047900000210160704700210161704730B50B684E
:1047A0005A1C02D000F1080202E0026904E022462D
:1047B000546825689D42FAD953684B6099608A60B5
:1047C000516008610168491C016030BD42684A605F
:1047D00093688B6093685960916008610168491C17
:1047E00001607047502080F31188BFF34F8FBFF3F3
:1047F0006F8F0A494868401C486001280CD108485E
:10480000006810F0FF0F07D0502080F31188BFF32D
:104810004F8FBFF36F8FFEE77047000084000020CA
:1048200004ED00E00849486828B1401E486001D105
:1048300080F311887047502080F31188BFF34F8FA9
:10484000BFF36F8FFEE700008400002070B50028E2
:1048500027D0144DA0F108046168E868014207D12F
:10486000502080F31188BFF34F8FBFF36F8FFEE7A7
:1048700022683AB1502080F31188BFF34F8FBFF305
:104880006F8FFEE78143616000F0BAF96068696884
:10489000084468602046FFF791FBBDE8704000F0D7
:1048A00085BF70BD6C0000204FF0E0200021016149
:1048B000816105494FF47A720968B1FBF2F1491E32
:1048C00041610721016170471400002010B5FBF71A
:1048D000C1FC114910280ED300F1E02090F8F0033C
:1048E0000A78904207D2502080F31188BFF34F8F8F
:1048F000BFF36F8FFEE709480068896800F4E06045
:10490000884207D9502080F31188BFF34F8FBFF33F
:104910006F8FFEE710BD0000840000200CED00E06A
:1049200010B5084B002200BF53F832401CB1521C96
:10493000082AF9D310BD43F8321003EBC2014860D6
:1049400010BD0000C401002070B515460E46044697
:10495000FFF748FF94F944100020491C01D184F866
:10496000440094F94510491C01D184F84500FFF733
:1049700059FFA06B28B92A46314604F1240000F003
:1049800097F82046BDE87040FFF7C6BC10B502009E
:1049900014D00F48806B38B1502080F31188BFF3DA
:1049A0004F8FBFF36F8FFEE700F02AF9002110460A
:1049B000FFF70EF900F0FAFE002807D105494FF085
:1049C00080500860BFF34F8FBFF36F8F10BD0000A2
:1049D0001800002004ED00E070B50D4604000BD077
:1049E00095B11E4A906BB8B1502080F31188BFF387
:1049F0004F8FBFF36F8FFEE7502080F31188BFF316
:104A00004F8FBFF36F8FFEE7502080F31188BFF305
:104A10004F8FBFF36F8FFEE700F0F2F85269236803
:104A20005919934204D98B420AD9914202D807E01E
:104A30008B42FAD9881A21600021FFF7C9F800E0FB
:104A4000216000F0B3FE002807D105494FF08050E7
:104A50000860BFF34F8FBFF36F8F70BD1800002049
:104A600004ED00E002498A6A0260496941607047CA
:104A700018000020014901204862704718000020FA
:104A800010B50C4650B1094909681831FFF786FE88
:104A90002046BDE810400121FFF79AB8502080F36E
:104AA0001188BFF34F8FBFF36F8FFEE71800002010
:104AB00070B514460D4668B10A4909681831FFF708
:104AC00085FE0CB14FF0FF3521462846BDE8704009
:104AD000FFF77EB8502080F31188BFF34F8FBFF3EC
:104AE0006F8FFEE71800002070B504003ED0226DE5
:104AF000A2B1E06C884200D30146E06A884235D01A
:104B0000012A33D11A4D2A6894420FD1502080F3E4
:104B10001188BFF34F8FBFF36F8FFEE7502080F3F4
:104B20001188BFF34F8FBFF36F8FFEE7E162A26979
:104B3000002A02DBC1F13801A1610E4E00EB8000BA
:104B4000616906EB8000814210D1201DFFF7EEFD68
:104B5000E06AA969884200D9A86100EB800006EBF1
:104B60008000211DBDE87040FFF730BE70BD000021
:104B7000180000200402002030B587B00024039400
:104B800005AA04A903A80494FFF7E4FDDDE90301E5
:104B90000094CDE90110002315A11748059A00F0F3
:104BA000A7FC164D002868631FD000F061FE0128A5
:104BB00009D0401C19D1502080F31188BFF34F8FCA
:104BC000BFF36F8FFEE7502080F31188BFF34F8F44
:104BD000BFF36F8F4FF0FF3028630120E8616C61F5
:104BE00007B0BDE8304000F045B807B030BD000068
:104BF00049444C4500000000693E000818000020B0
:104C00000248816B491C8163704700001800002036
:104C1000164810B5816B11B10121416210BD002110
:104C200041628169124A01E0B9B1491E01EB810379
:104C300052F82330002BF7D001EB810302EB830203
:104C400002F1080453685B685360A34201D15B68BA
:104C50005360DA680260816110BD502080F31188D2
:104C6000BFF34F8FBFF36F8FFEE7000018000020E7
:104C7000040200201CB537480168374A914207D129
:104C8000502080F31188BFF34F8FBFF36F8FFEE783
:104C900000683149491E884207D1502080F31188AD
:104CA000BFF34F8FBFF36F8FFEE72C490878019059
:104CB000FF20087008788DF800009DF800009DF82E
:104CC000002000F0F000904207D0502080F31188BF
:104CD000BFF34F8FBFF36F8FFEE79DF80000204BAF
:104CE00000F0500018700720986005E09DF8002043
:104CF00052008DF80020401E9DF800201206F5D4C9
:104D00009860032807D0502080F31188BFF34F8F9D
:104D1000BFF36F8FFEE74FF4407098600198087002
:104D20000C482030016841F470010160016841F0D5
:104D300070410160FFF7B8FD00205860FBF752FAA0
:104D40000848016841F040410160FBF737FA002054
:104D50001CBD000000ED00E071C20F4100E400E066
:104D60008400002034EF00E010B50246002101204D
:104D700000F012F80446FFF7A7F8204610BD38B53A
:104D80000B46002200901146012000F029F804464D
:104D9000FFF79AF8204638BDF8B517460E460500CD
:104DA00014D0DEB105FB06F05030FFF7EBFA04003B
:104DB0000AD0002084F8460004F150023B463146F8
:104DC00028460094FFF78CF82046F8BD502080F369
:104DD0001188BFF34F8FBFF36F8FFEE70020E3E72B
:104DE00038B5049D18B153B1CAB181B120E050204B
:104DF00080F31188BFF34F8FBFF36F8FFEE7502012
:104E000080F31188BFF34F8FBFF36F8FFEE7502001
:104E100080F31188BFF34F8FBFF36F8FFEE739B177
:104E2000502080F31188BFF34F8FBFF36F8FFEE7E1
:104E300050241C46012384F846302B460094FFF78B
:104E40004FF8204638BD000070B50D46040025D04F
:104E5000FFF7C8FCD4E90F20216802FB0011A16014
:104E60000021A163216861600A46D4E90F01401E58
:104E700000FB0121E16021464FF0FF3001F8440FB3
:104E8000487004F110008DB1FFF77AFC04F12400A2
:104E9000FFF776FCFFF7C6FC012070BD502080F3C1
:104EA0001188BFF34F8FBFF36F8FFEE72169002991
:104EB000F0D000F043FC0028ECD004494FF08050C3
:104EC0000860BFF34F8FBFF36F8FE3E704ED00E09F
:104ED0002DE9FF4782B01D468A464FF000080400C6
:104EE00003D0BAF1000F08D011E0502080F31188F0
:104EF000BFF34F8FBFF36F8FFEE7206C38B15020A8
:104F000080F31188BFF34F8FBFF36F8FFEE7022D41
:104F10000AD1E06B012807D0502080F31188BFF33D
:104F20004F8FBFF36F8FFEE700F014FB3F4F4FF042
:104F300000094FF0805648B9049838B1502080F3EA
:104F40001188BFF34F8FBFF36F8FFEE7FFF74AFC67
:104F5000A06BE16B884207D3022D05D00498D0B135
:104F6000B8F1000F1AD01EE02A4651462046FEF73F
:104F700004FF616A19B104F1240000F0DFFB20B1E5
:104F80003E60BFF34F8FBFF36F8FFFF74BFC0120E5
:104F900006B0BDE8F087FFF745FC22E06846FFF762
:104FA00061FD4FF00108FFF73DFCFFF729FEFFF719
:104FB00019FC94F94400401C01D184F8449094F900
:104FC0004500401C01D184F84590FFF72BFC04A953
:104FD000684600F023FA30B12046FFF79DF900F053
:104FE000E5FB0020D4E7FFF7FDFBA06BE16B8842F7
:104FF00013D1FFF717FC04F110000499FFF740FDEF
:105000002046FFF789F900F0D1FB00289ED13E60D1
:10501000BFF34F8FBFF36F8F98E7FFF703FC204676
:10502000FFF77AF900F0C2FB90E7000004ED00E022
:105030002DE9F0471F4690468946040003D0B9F198
:10504000000F08D011E0502080F31188BFF34F8F7C
:10505000BFF36F8FFEE7206C38B1502080F31188CA
:10506000BFF34F8FBFF36F8FFEE7022F0AD1E06BC4
:10507000012807D0502080F31188BFF34F8FBFF372
:105080006F8FFEE7FFF722FC5020EFF3118680F3CD
:105090001188BFF34F8FBFF36F8FA06BE16B884216
:1050A00006D3022F04D0002086F31188BDE8F087D4
:1050B00094F945503A4649462046FEF75EFE681C84
:1050C00004D06D1C84F845500120EDE7606A00288B
:1050D000FAD004F1240000F031FB0028F4D0B8F13C
:1050E000000FF1D00121C8F80010EDE710B5040061
:1050F00009D000F029FAA168884214D1E068401E66
:10510000E06008D00DE0502080F31188BFF34F8F8E
:10511000BFF36F8FFEE700231A4619462046FFF7BC
:10512000D7FE012010BD002010BD00002DE9F7477B
:10513000002683B08A46040003D0BAF1000F08D0DD
:1051400011E0502080F31188BFF34F8FBFF36F8FB2
:10515000FEE7206C38B1502080F31188BFF34F8FE9
:10516000BFF36F8FFEE700F0F5F9DFF8F4804FF042
:1051700000094FF0805748B9059838B1502080F3A6
:105180001188BFF34F8FBFF36F8FFEE7FFF72AFB46
:10519000A56BC5B151462046FEF7DCFD6D1EA5632B
:1051A000206950B104F1100000F0C8FA28B1C8F825
:1051B0000070BFF34F8FBFF36F8FFFF733FB0120FA
:1051C00006B0BDE8F087059808B11EB106E0FFF70C
:1051D00029FB27E06846FFF745FC0126FFF722FB85
:1051E000FFF70EFDFFF7FEFA94F94400401C01D1D1
:1051F00084F8449094F94500401C01D184F845900E
:10520000FFF710FB05A9684600F008F900282046C2
:105210000AD0FFF781F800F0C9FA2046FEF710FF28
:105220000028B3D00020CBE7FEF70AFF90B104F1CD
:1052300024000599FFF724FC2046FFF76DF800F0E5
:10524000B5FA0028A2D1C8F80070BFF34F8FBFF3A2
:105250006F8F9BE72046FFF75FF800F0A7FA95E70E
:1052600004ED00E02DE9F343002683B00400354649
:1052700009D0206C78B1502080F31188BFF34F8F94
:10528000BFF36F8FFEE7502080F31188BFF34F8F7D
:10529000BFF36F8FFEE700F05DF9DFF83C814FF060
:1052A00000094FF0805748B9049838B1502080F376
:1052B0001188BFF34F8FBFF36F8FFEE7FFF792FAAE
:1052C000A06BC8B1401EA063206810B9FFF7C6F8F4
:1052D000A060206950B104F1100000F02FFA28B14D
:1052E000C8F80070BFF34F8FBFF36F8FFFF79AFAC4
:1052F000012005B0BDE8F083049808B166B10FE065
:105300003DB1502080F31188BFF34F8FBFF36F8FF3
:10531000FEE7FFF787FA5DE06846FFF7A3FB01268B
:10532000FFF780FAFFF76CFCFFF75CFA94F9440092
:10533000401C01D184F8449094F94500401C01D1EF
:1053400084F84590FFF76EFA04A9684600F066F805
:105350000028204612D0FEF7DFFF00F027FA204693
:10536000FEF76EFE0028A9D09DB3FFF73BFA606AF6
:1053700050B3206B0068C0F1380126E0FEF760FEF4
:10538000E0B1206838B9FFF72DFAA06800F09AF96B
:105390000546FFF747FA04F124000499FFF770FB74
:1053A0002046FEF7B9FF00F001FA002886D1C8F8C0
:1053B0000070BFF34F8FBFF36F8F7FE72046FEF77C
:1053C000ABFF00F0F3F979E70021A068FFF78CFB51
:1053D0009FE7FFE700208CE704ED00E070B50D4685
:1053E000040009D000F0B0F8A16888420CD1E06850
:1053F000401CE060012070BD502080F31188BFF395
:105400004F8FBFF36F8FFEE729462046FFF72AFF35
:105410000028F0D0E168491CE16070BD2DE9F04141
:105420000C46050011D0C4B1FFF7DCF9174B5A69DF
:105430006E682068911B471C17D02F689B6A9F429B
:1054400019D0964217D8012410E0502080F311881B
:10545000BFF34F8FBFF36F8FFEE7502080F31188AB
:10546000BFF34F8FBFF36F8FFEE70024FFF7DAF92A
:105470002046BDE8F081884205D9401A20602846C0
:10548000FFF7F0FAF1E700202060DCE718000020C9
:105490002DE9FF5F8346DDE90E87994616468A4669
:1054A0009000FEF76FFF05001CD05C20FEF76AFF3E
:1054B000040014D00020256384F85900CDE902408F
:1054C000CDE900874B46324651465846FEF71AFD55
:1054D0002046FEF7ABFB012004B000F006B82846DA
:1054E000FFF7B4F94FF0FF30F6E730BCBDE8C09FDE
:1054F000F0B585B0DDE90B640A9DA6B1DCB15C278F
:1055000000972663022684F85960002604AFCDE98F
:105510000246CDE90057FEF7F5FC2046FEF786FB74
:10552000049805B0F0BD502080F31188BFF34F8F71
:10553000BFF36F8FFEE7502080F31188BFF34F8FCA
:10554000BFF36F8FFEE7000001480068704700005E
:10555000180000200548C16919B1806B18B10020FE
:10556000704701207047022070470000180000209B
:105570000148406970470000180000202DE9F04103
:105580002E4C0027A06B40B1206A401C2062606A4C
:1055900000B101273846BDE8F0816669761C666176
:1055A00013D16068006838B1502080F31188BFF3D0
:1055B0004F8FBFF36F8FFEE76068A1686160A060E6
:1055C000A06A401CA062FEF727FE206BDFF8708007
:1055D000864209D36068006880B16068C068C568A9
:1055E000686886420DD220632068C06A00EB8001A3
:1055F00058F821000128CAD90127C8E74FF0FF3029
:10560000F1E7281DFFF792F8A86A18B105F1180014
:10561000FFF78CF8E86AA169884200D9A06100EB25
:10562000800108EB8100291DFFF7D0F8E86A2168A6
:10563000C96A8842CED30127CCE7000018000020B9
:105640000402002070B504004FF0000133D01B4D60
:105650002868844207D0502080F31188BFF34F8F11
:10566000BFF36F8FFEE7206D38B1401E2065E36CFD
:10567000E26A9A421FD040B11DE0502080F31188A9
:10568000BFF34F8FBFF36F8FFEE7201DFFF74EF87C
:10569000E06CE062C0F13800A061E06AA96988426C
:1056A00000D9A861064900EB800001EB8000211DB4
:1056B000FFF78CF80121084670BD0000180000209B
:1056C0000402002070B504004FF000002BD0194DEB
:1056D000E16A2A68D26A914226D2A069002804DBD6
:1056E0002868C06AC0F13800A061134E01EB810147
:1056F000606906EB8101884211D1201DFFF716F881
:105700002868C06AE062A969884200D9A86100EBF4
:10571000800006EB8000211DFFF758F802E02868A2
:10572000C06AE062012070BDE16C2A68D26A9142D1
:10573000F8D370BD180000200402002070B5C068C6
:10574000C46854B104F118000646FEF7EFFF144D8B
:10575000A86B50B13146134815E0502080F31188F2
:10576000BFF34F8FBFF36F8FFEE7201DFEF7DEFF05
:10577000E06AA969884200D9A8610B4900EB800062
:1057800001EB8000211DFFF721F8E06A2968C96A52
:10579000884202D90120686270BD002070BD0000FF
:1057A000180000208C060020040200202DE9F0479C
:1057B0002C4D00242746A86B38B1FFF713F8A86BCF
:1057C000401EA863A86B40B146E0502080F31188CA
:1057D000BFF34F8FBFF36F8FFEE72969224E012081
:1057E000D1B3A6F5916980463068E0B1F068C4682D
:1057F00004F11800FEF79AFF201DFEF797FFE06AFC
:10580000A969884200D9A86100EB800109EB8100F9
:10581000211DFEF7DBFFE06A2968C96A8842E3D3ED
:10582000C5F82480E0E70CB1FEF7F6FC2C6A4CB119
:105830004FEA0806FFF7A2FE00B16E62641EF9D1BE
:1058400000202862686A38B10849012738070860D3
:10585000BFF34F8FBFF36F8FFEF7E4FF3846BDE80D
:10586000F0870000180000208C06002004ED00E006
:1058700010B586B0FEF742FA114CA068B8B100200E
:105880000390049005AA04A903A8FEF76DFFDDE9C3
:10589000032102208DE8070000230AA10B48059A86
:1058A000FFF726FEE06010B106B0012010BD5020C9
:1058B00080F31188BFF34F8FBFF36F8FFEE70000B7
:1058C00054000020546D722053766300F5420008A6
:1058D0002DE9FF411E46134602000A9D4FF00000CD
:1058E00016D0144CA768002F0FD0CDE900130292F8
:1058F000062917DAFFF72EFE02284FF000030FD01B
:1059000000226946A068FFF7E3FA04B0BDE8F08121
:10591000502080F31188BFF34F8FBFF36F8FFEE7E6
:105920002A46EEE70023324669463846FFF780FBF9
:10593000EBE7000054000020D859000800000000E8
:105940000000000000000000000000000002000055
:10595000180000000000000000000000E4590008EA
:105960000000000000000000000000000000000037
:105970000008000018000000000000000000000007
:1059800000000000000000000102030406070809EF
:10599000A0860100400D0300801A060000350C00AF
:1059A00040420F0080841E0000093D0000127A0072
:1059B0000024F40000366E010048E801006CDC02AF
:1059C00000000000010203040000000003000000CA
:1059D000981E00205000000064656661756C745468
:1059E00061736B006D795461736B53656E736F7285
:1059F000730000006D656173757265642074656D78
:105A000070657261747572653A2025302E32662099
:105A100064656772656543656C736975732C206D89
:105A2000656173757265642068756D696469747900
:105A30003A2025302E32662070657263656E74528E
:105A4000480A0000645A000800000020AC00000072
:105A5000A82F0008105B0008AC0000203C220000CA
:105A6000B82F000800000000000000000100000046
:105A7000100000000000000000093D0000000000D0
:105A80000000000000000000000000000000000016
:105A90000000000000000000000000000000000006
:105AA00000000000000000000000000000000000F6
:105AB00000000000000000000000000000000000E6
:105AC00000000000000000000000000000000000D6
:105AD00000000000000000000000000000000000C6
:105AE000000000000000000000000000AAAAAAAA0E
:105AF0000000000000240000000000000000000082
:105B0000370000000000000000000000000000005E
:040000050800018965
:00000001FF
